{
  "_format": "hh-sol-artifact-1",
  "contractName": "TicketMaster",
  "sourceName": "contracts/TicketMaster.sol",
  "abi": [
    {
      "inputs": [],
      "stateMutability": "nonpayable",
      "type": "constructor"
    },
    {
      "inputs": [
        {
          "internalType": "address",
          "name": "sender",
          "type": "address"
        },
        {
          "internalType": "uint256",
          "name": "tokenId",
          "type": "uint256"
        },
        {
          "internalType": "address",
          "name": "owner",
          "type": "address"
        }
      ],
      "name": "ERC721IncorrectOwner",
      "type": "error"
    },
    {
      "inputs": [
        {
          "internalType": "address",
          "name": "operator",
          "type": "address"
        },
        {
          "internalType": "uint256",
          "name": "tokenId",
          "type": "uint256"
        }
      ],
      "name": "ERC721InsufficientApproval",
      "type": "error"
    },
    {
      "inputs": [
        {
          "internalType": "address",
          "name": "approver",
          "type": "address"
        }
      ],
      "name": "ERC721InvalidApprover",
      "type": "error"
    },
    {
      "inputs": [
        {
          "internalType": "address",
          "name": "operator",
          "type": "address"
        }
      ],
      "name": "ERC721InvalidOperator",
      "type": "error"
    },
    {
      "inputs": [
        {
          "internalType": "address",
          "name": "owner",
          "type": "address"
        }
      ],
      "name": "ERC721InvalidOwner",
      "type": "error"
    },
    {
      "inputs": [
        {
          "internalType": "address",
          "name": "receiver",
          "type": "address"
        }
      ],
      "name": "ERC721InvalidReceiver",
      "type": "error"
    },
    {
      "inputs": [
        {
          "internalType": "address",
          "name": "sender",
          "type": "address"
        }
      ],
      "name": "ERC721InvalidSender",
      "type": "error"
    },
    {
      "inputs": [
        {
          "internalType": "uint256",
          "name": "tokenId",
          "type": "uint256"
        }
      ],
      "name": "ERC721NonexistentToken",
      "type": "error"
    },
    {
      "inputs": [
        {
          "internalType": "address",
          "name": "owner",
          "type": "address"
        }
      ],
      "name": "OwnableInvalidOwner",
      "type": "error"
    },
    {
      "inputs": [
        {
          "internalType": "address",
          "name": "account",
          "type": "address"
        }
      ],
      "name": "OwnableUnauthorizedAccount",
      "type": "error"
    },
    {
      "anonymous": false,
      "inputs": [
        {
          "indexed": true,
          "internalType": "address",
          "name": "owner",
          "type": "address"
        },
        {
          "indexed": true,
          "internalType": "address",
          "name": "approved",
          "type": "address"
        },
        {
          "indexed": true,
          "internalType": "uint256",
          "name": "tokenId",
          "type": "uint256"
        }
      ],
      "name": "Approval",
      "type": "event"
    },
    {
      "anonymous": false,
      "inputs": [
        {
          "indexed": true,
          "internalType": "address",
          "name": "owner",
          "type": "address"
        },
        {
          "indexed": true,
          "internalType": "address",
          "name": "operator",
          "type": "address"
        },
        {
          "indexed": false,
          "internalType": "bool",
          "name": "approved",
          "type": "bool"
        }
      ],
      "name": "ApprovalForAll",
      "type": "event"
    },
    {
      "anonymous": false,
      "inputs": [
        {
          "indexed": true,
          "internalType": "address",
          "name": "previousOwner",
          "type": "address"
        },
        {
          "indexed": true,
          "internalType": "address",
          "name": "newOwner",
          "type": "address"
        }
      ],
      "name": "OwnershipTransferred",
      "type": "event"
    },
    {
      "anonymous": false,
      "inputs": [
        {
          "indexed": true,
          "internalType": "address",
          "name": "from",
          "type": "address"
        },
        {
          "indexed": true,
          "internalType": "address",
          "name": "to",
          "type": "address"
        },
        {
          "indexed": true,
          "internalType": "uint256",
          "name": "tokenId",
          "type": "uint256"
        }
      ],
      "name": "Transfer",
      "type": "event"
    },
    {
      "inputs": [
        {
          "internalType": "address",
          "name": "to",
          "type": "address"
        },
        {
          "internalType": "uint256",
          "name": "tokenId",
          "type": "uint256"
        }
      ],
      "name": "approve",
      "outputs": [],
      "stateMutability": "nonpayable",
      "type": "function"
    },
    {
      "inputs": [
        {
          "internalType": "address",
          "name": "owner",
          "type": "address"
        }
      ],
      "name": "balanceOf",
      "outputs": [
        {
          "internalType": "uint256",
          "name": "",
          "type": "uint256"
        }
      ],
      "stateMutability": "view",
      "type": "function"
    },
    {
      "inputs": [
        {
          "internalType": "uint256",
          "name": "_eventId",
          "type": "uint256"
        },
        {
          "internalType": "uint256",
          "name": "_ticketId",
          "type": "uint256"
        }
      ],
      "name": "buyResaleTicket",
      "outputs": [],
      "stateMutability": "payable",
      "type": "function"
    },
    {
      "inputs": [
        {
          "internalType": "address",
          "name": "",
          "type": "address"
        },
        {
          "internalType": "uint256",
          "name": "",
          "type": "uint256"
        }
      ],
      "name": "creatorEvents",
      "outputs": [
        {
          "internalType": "uint256",
          "name": "",
          "type": "uint256"
        }
      ],
      "stateMutability": "view",
      "type": "function"
    },
    {
      "inputs": [
        {
          "internalType": "uint256",
          "name": "_eventId",
          "type": "uint256"
        },
        {
          "internalType": "uint256",
          "name": "_seatId",
          "type": "uint256"
        }
      ],
      "name": "enableResale",
      "outputs": [],
      "stateMutability": "nonpayable",
      "type": "function"
    },
    {
      "inputs": [
        {
          "internalType": "uint256",
          "name": "tokenId",
          "type": "uint256"
        }
      ],
      "name": "getApproved",
      "outputs": [
        {
          "internalType": "address",
          "name": "",
          "type": "address"
        }
      ],
      "stateMutability": "view",
      "type": "function"
    },
    {
      "inputs": [
        {
          "internalType": "address",
          "name": "_creator",
          "type": "address"
        }
      ],
      "name": "getEventsCreatedBy",
      "outputs": [
        {
          "internalType": "uint256[]",
          "name": "",
          "type": "uint256[]"
        }
      ],
      "stateMutability": "view",
      "type": "function"
    },
    {
      "inputs": [
        {
          "internalType": "uint256",
          "name": "_id",
          "type": "uint256"
        }
      ],
      "name": "getOccasion",
      "outputs": [
        {
          "components": [
            {
              "internalType": "uint256",
              "name": "id",
              "type": "uint256"
            },
            {
              "internalType": "string",
              "name": "name",
              "type": "string"
            },
            {
              "internalType": "uint256",
              "name": "cost",
              "type": "uint256"
            },
            {
              "internalType": "uint256",
              "name": "tickets",
              "type": "uint256"
            },
            {
              "internalType": "uint256",
              "name": "maxTickets",
              "type": "uint256"
            },
            {
              "internalType": "string",
              "name": "date",
              "type": "string"
            },
            {
              "internalType": "string",
              "name": "time",
              "type": "string"
            },
            {
              "internalType": "string",
              "name": "location",
              "type": "string"
            },
            {
              "internalType": "string",
              "name": "bannerImage",
              "type": "string"
            },
            {
              "internalType": "string",
              "name": "vrVideo",
              "type": "string"
            },
            {
              "internalType": "address",
              "name": "creator",
              "type": "address"
            }
          ],
          "internalType": "struct TicketMaster.Occasion",
          "name": "",
          "type": "tuple"
        }
      ],
      "stateMutability": "view",
      "type": "function"
    },
    {
      "inputs": [
        {
          "internalType": "uint256",
          "name": "_id",
          "type": "uint256"
        }
      ],
      "name": "getSeatsTaken",
      "outputs": [
        {
          "internalType": "uint256[]",
          "name": "",
          "type": "uint256[]"
        }
      ],
      "stateMutability": "view",
      "type": "function"
    },
    {
      "inputs": [
        {
          "internalType": "address",
          "name": "_user",
          "type": "address"
        }
      ],
      "name": "getUserTickets",
      "outputs": [
        {
          "internalType": "uint256[]",
          "name": "",
          "type": "uint256[]"
        },
        {
          "internalType": "uint256[]",
          "name": "",
          "type": "uint256[]"
        }
      ],
      "stateMutability": "view",
      "type": "function"
    },
    {
      "inputs": [
        {
          "internalType": "uint256",
          "name": "",
          "type": "uint256"
        },
        {
          "internalType": "address",
          "name": "",
          "type": "address"
        }
      ],
      "name": "hasBought",
      "outputs": [
        {
          "internalType": "bool",
          "name": "",
          "type": "bool"
        }
      ],
      "stateMutability": "view",
      "type": "function"
    },
    {
      "inputs": [
        {
          "internalType": "address",
          "name": "owner",
          "type": "address"
        },
        {
          "internalType": "address",
          "name": "operator",
          "type": "address"
        }
      ],
      "name": "isApprovedForAll",
      "outputs": [
        {
          "internalType": "bool",
          "name": "",
          "type": "bool"
        }
      ],
      "stateMutability": "view",
      "type": "function"
    },
    {
      "inputs": [
        {
          "internalType": "string",
          "name": "_name",
          "type": "string"
        },
        {
          "internalType": "uint256",
          "name": "_cost",
          "type": "uint256"
        },
        {
          "internalType": "uint256",
          "name": "_maxTickets",
          "type": "uint256"
        },
        {
          "internalType": "string",
          "name": "_date",
          "type": "string"
        },
        {
          "internalType": "string",
          "name": "_time",
          "type": "string"
        },
        {
          "internalType": "string",
          "name": "_location",
          "type": "string"
        },
        {
          "internalType": "string",
          "name": "_bannerImage",
          "type": "string"
        }
      ],
      "name": "list",
      "outputs": [],
      "stateMutability": "nonpayable",
      "type": "function"
    },
    {
      "inputs": [
        {
          "internalType": "uint256",
          "name": "_id",
          "type": "uint256"
        },
        {
          "internalType": "uint256",
          "name": "_seat",
          "type": "uint256"
        }
      ],
      "name": "mint",
      "outputs": [],
      "stateMutability": "payable",
      "type": "function"
    },
    {
      "inputs": [],
      "name": "name",
      "outputs": [
        {
          "internalType": "string",
          "name": "",
          "type": "string"
        }
      ],
      "stateMutability": "view",
      "type": "function"
    },
    {
      "inputs": [
        {
          "internalType": "uint256",
          "name": "",
          "type": "uint256"
        }
      ],
      "name": "occasions",
      "outputs": [
        {
          "internalType": "uint256",
          "name": "id",
          "type": "uint256"
        },
        {
          "internalType": "string",
          "name": "name",
          "type": "string"
        },
        {
          "internalType": "uint256",
          "name": "cost",
          "type": "uint256"
        },
        {
          "internalType": "uint256",
          "name": "tickets",
          "type": "uint256"
        },
        {
          "internalType": "uint256",
          "name": "maxTickets",
          "type": "uint256"
        },
        {
          "internalType": "string",
          "name": "date",
          "type": "string"
        },
        {
          "internalType": "string",
          "name": "time",
          "type": "string"
        },
        {
          "internalType": "string",
          "name": "location",
          "type": "string"
        },
        {
          "internalType": "string",
          "name": "bannerImage",
          "type": "string"
        },
        {
          "internalType": "string",
          "name": "vrVideo",
          "type": "string"
        },
        {
          "internalType": "address",
          "name": "creator",
          "type": "address"
        }
      ],
      "stateMutability": "view",
      "type": "function"
    },
    {
      "inputs": [],
      "name": "owner",
      "outputs": [
        {
          "internalType": "address",
          "name": "",
          "type": "address"
        }
      ],
      "stateMutability": "view",
      "type": "function"
    },
    {
      "inputs": [
        {
          "internalType": "uint256",
          "name": "tokenId",
          "type": "uint256"
        }
      ],
      "name": "ownerOf",
      "outputs": [
        {
          "internalType": "address",
          "name": "",
          "type": "address"
        }
      ],
      "stateMutability": "view",
      "type": "function"
    },
    {
      "inputs": [],
      "name": "renounceOwnership",
      "outputs": [],
      "stateMutability": "nonpayable",
      "type": "function"
    },
    {
      "inputs": [
        {
          "internalType": "uint256",
          "name": "",
          "type": "uint256"
        },
        {
          "internalType": "uint256",
          "name": "",
          "type": "uint256"
        }
      ],
      "name": "resaleAllowed",
      "outputs": [
        {
          "internalType": "bool",
          "name": "",
          "type": "bool"
        }
      ],
      "stateMutability": "view",
      "type": "function"
    },
    {
      "inputs": [
        {
          "internalType": "address",
          "name": "from",
          "type": "address"
        },
        {
          "internalType": "address",
          "name": "to",
          "type": "address"
        },
        {
          "internalType": "uint256",
          "name": "tokenId",
          "type": "uint256"
        }
      ],
      "name": "safeTransferFrom",
      "outputs": [],
      "stateMutability": "nonpayable",
      "type": "function"
    },
    {
      "inputs": [
        {
          "internalType": "address",
          "name": "from",
          "type": "address"
        },
        {
          "internalType": "address",
          "name": "to",
          "type": "address"
        },
        {
          "internalType": "uint256",
          "name": "tokenId",
          "type": "uint256"
        },
        {
          "internalType": "bytes",
          "name": "data",
          "type": "bytes"
        }
      ],
      "name": "safeTransferFrom",
      "outputs": [],
      "stateMutability": "nonpayable",
      "type": "function"
    },
    {
      "inputs": [
        {
          "internalType": "uint256",
          "name": "_eventId",
          "type": "uint256"
        },
        {
          "internalType": "uint256",
          "name": "_seatId",
          "type": "uint256"
        }
      ],
      "name": "scanTicket",
      "outputs": [],
      "stateMutability": "nonpayable",
      "type": "function"
    },
    {
      "inputs": [
        {
          "internalType": "uint256",
          "name": "",
          "type": "uint256"
        },
        {
          "internalType": "uint256",
          "name": "",
          "type": "uint256"
        }
      ],
      "name": "seatTaken",
      "outputs": [
        {
          "internalType": "address",
          "name": "",
          "type": "address"
        }
      ],
      "stateMutability": "view",
      "type": "function"
    },
    {
      "inputs": [
        {
          "internalType": "uint256",
          "name": "",
          "type": "uint256"
        },
        {
          "internalType": "uint256",
          "name": "",
          "type": "uint256"
        }
      ],
      "name": "seatToTokenId",
      "outputs": [
        {
          "internalType": "uint256",
          "name": "",
          "type": "uint256"
        }
      ],
      "stateMutability": "view",
      "type": "function"
    },
    {
      "inputs": [
        {
          "internalType": "uint256",
          "name": "",
          "type": "uint256"
        },
        {
          "internalType": "uint256",
          "name": "",
          "type": "uint256"
        }
      ],
      "name": "seatsTaken",
      "outputs": [
        {
          "internalType": "uint256",
          "name": "",
          "type": "uint256"
        }
      ],
      "stateMutability": "view",
      "type": "function"
    },
    {
      "inputs": [
        {
          "internalType": "address",
          "name": "operator",
          "type": "address"
        },
        {
          "internalType": "bool",
          "name": "approved",
          "type": "bool"
        }
      ],
      "name": "setApprovalForAll",
      "outputs": [],
      "stateMutability": "nonpayable",
      "type": "function"
    },
    {
      "inputs": [
        {
          "internalType": "uint256",
          "name": "_id",
          "type": "uint256"
        },
        {
          "internalType": "string",
          "name": "_vrVideo",
          "type": "string"
        }
      ],
      "name": "setVRVideo",
      "outputs": [],
      "stateMutability": "nonpayable",
      "type": "function"
    },
    {
      "inputs": [
        {
          "internalType": "bytes4",
          "name": "interfaceId",
          "type": "bytes4"
        }
      ],
      "name": "supportsInterface",
      "outputs": [
        {
          "internalType": "bool",
          "name": "",
          "type": "bool"
        }
      ],
      "stateMutability": "view",
      "type": "function"
    },
    {
      "inputs": [],
      "name": "symbol",
      "outputs": [
        {
          "internalType": "string",
          "name": "",
          "type": "string"
        }
      ],
      "stateMutability": "view",
      "type": "function"
    },
    {
      "inputs": [
        {
          "internalType": "uint256",
          "name": "",
          "type": "uint256"
        },
        {
          "internalType": "uint256",
          "name": "",
          "type": "uint256"
        }
      ],
      "name": "ticketExhausted",
      "outputs": [
        {
          "internalType": "bool",
          "name": "",
          "type": "bool"
        }
      ],
      "stateMutability": "view",
      "type": "function"
    },
    {
      "inputs": [
        {
          "internalType": "uint256",
          "name": "tokenId",
          "type": "uint256"
        }
      ],
      "name": "tokenURI",
      "outputs": [
        {
          "internalType": "string",
          "name": "",
          "type": "string"
        }
      ],
      "stateMutability": "view",
      "type": "function"
    },
    {
      "inputs": [],
      "name": "totalOccasions",
      "outputs": [
        {
          "internalType": "uint256",
          "name": "",
          "type": "uint256"
        }
      ],
      "stateMutability": "view",
      "type": "function"
    },
    {
      "inputs": [],
      "name": "totalSupply",
      "outputs": [
        {
          "internalType": "uint256",
          "name": "",
          "type": "uint256"
        }
      ],
      "stateMutability": "view",
      "type": "function"
    },
    {
      "inputs": [
        {
          "internalType": "address",
          "name": "from",
          "type": "address"
        },
        {
          "internalType": "address",
          "name": "to",
          "type": "address"
        },
        {
          "internalType": "uint256",
          "name": "tokenId",
          "type": "uint256"
        }
      ],
      "name": "transferFrom",
      "outputs": [],
      "stateMutability": "nonpayable",
      "type": "function"
    },
    {
      "inputs": [
        {
          "internalType": "address",
          "name": "newOwner",
          "type": "address"
        }
      ],
      "name": "transferOwnership",
      "outputs": [],
      "stateMutability": "nonpayable",
      "type": "function"
    }
  ],
  "bytecode": "0x60806040523480156200001157600080fd5b50336040518060400160405280600581526020017f546f6b656e0000000000000000000000000000000000000000000000000000008152506040518060400160405280600681526020017f5469636b65740000000000000000000000000000000000000000000000000000815250816000908162000090919062000472565b508060019081620000a2919062000472565b505050600073ffffffffffffffffffffffffffffffffffffffff168173ffffffffffffffffffffffffffffffffffffffff16036200011a5760006040517f1e4fbdf70000000000000000000000000000000000000000000000000000000081526004016200011191906200059e565b60405180910390fd5b6200012b816200013260201b60201c565b50620005bb565b6000600660009054906101000a900473ffffffffffffffffffffffffffffffffffffffff16905081600660006101000a81548173ffffffffffffffffffffffffffffffffffffffff021916908373ffffffffffffffffffffffffffffffffffffffff1602179055508173ffffffffffffffffffffffffffffffffffffffff168173ffffffffffffffffffffffffffffffffffffffff167f8be0079c531659141344cd1fd0a4f28419497f9722a3daafe3b4186f6b6457e060405160405180910390a35050565b600081519050919050565b7f4e487b7100000000000000000000000000000000000000000000000000000000600052604160045260246000fd5b7f4e487b7100000000000000000000000000000000000000000000000000000000600052602260045260246000fd5b600060028204905060018216806200027a57607f821691505b60208210810362000290576200028f62000232565b5b50919050565b60008190508160005260206000209050919050565b60006020601f8301049050919050565b600082821b905092915050565b600060088302620002fa7fffffffffffffffffffffffffffffffffffffffffffffffffffffffffffffffff82620002bb565b620003068683620002bb565b95508019841693508086168417925050509392505050565b6000819050919050565b6000819050919050565b6000620003536200034d62000347846200031e565b62000328565b6200031e565b9050919050565b6000819050919050565b6200036f8362000332565b620003876200037e826200035a565b848454620002c8565b825550505050565b600090565b6200039e6200038f565b620003ab81848462000364565b505050565b5b81811015620003d357620003c760008262000394565b600181019050620003b1565b5050565b601f8211156200042257620003ec8162000296565b620003f784620002ab565b8101602085101562000407578190505b6200041f6200041685620002ab565b830182620003b0565b50505b505050565b600082821c905092915050565b6000620004476000198460080262000427565b1980831691505092915050565b600062000462838362000434565b9150826002028217905092915050565b6200047d82620001f8565b67ffffffffffffffff81111562000499576200049862000203565b5b620004a5825462000261565b620004b2828285620003d7565b600060209050601f831160018114620004ea5760008415620004d5578287015190505b620004e1858262000454565b86555062000551565b601f198416620004fa8662000296565b60005b828110156200052457848901518255600182019150602085019450602081019050620004fd565b8683101562000544578489015162000540601f89168262000434565b8355505b6001600288020188555050505b505050505050565b600073ffffffffffffffffffffffffffffffffffffffff82169050919050565b6000620005868262000559565b9050919050565b620005988162000579565b82525050565b6000602082019050620005b560008301846200058d565b92915050565b61532c80620005cb6000396000f3fe60806040526004361061020f5760003560e01c80637284328211610118578063a22cb465116100a0578063b88d4fde1161006f578063b88d4fde14610820578063c233e22b14610849578063c87b56dd14610886578063e985e9c5146108c3578063f2fde38b146109005761020f565b8063a22cb46514610768578063adca6f8914610791578063af296da1146107ba578063afb5604e146107f75761020f565b8063953865c1116100e7578063953865c11461067c57806395d89b41146106a75780639b26ce0c146106d25780639cb04aef146106ee578063a0415bb41461072b5761020f565b8063728432821461059a57806374bc8656146105d75780637cea357c146106145780638da5cb5b146106515761020f565b806336cf43b81161019b57806361a5672d1161016a57806361a5672d146104995780636352211e146104e05780636b787f091461051d57806370a0823114610546578063715018a6146105835761020f565b806336cf43b8146103cd57806342842e0e146103f65780634e7497fc1461041f5780635b6966ac1461045c5761020f565b8063095ea7b3116101e2578063095ea7b3146102f75780630ef7ec741461032057806318160ddd1461035d5780631b2ef1ca1461038857806323b872dd146103a45761020f565b806301ffc9a7146102145780630484a22f1461025157806306fdde031461028f578063081812fc146102ba575b600080fd5b34801561022057600080fd5b5061023b60048036038101906102369190613bb1565b610929565b6040516102489190613bf9565b60405180910390f35b34801561025d57600080fd5b5061027860048036038101906102739190613c72565b610a0b565b604051610286929190613d67565b60405180910390f35b34801561029b57600080fd5b506102a4610d3e565b6040516102b19190613e2e565b60405180910390f35b3480156102c657600080fd5b506102e160048036038101906102dc9190613e7c565b610dd0565b6040516102ee9190613eb8565b60405180910390f35b34801561030357600080fd5b5061031e60048036038101906103199190613ed3565b610dec565b005b34801561032c57600080fd5b5061034760048036038101906103429190613e7c565b610e02565b6040516103549190613f13565b60405180910390f35b34801561036957600080fd5b50610372610e6d565b60405161037f9190613f44565b60405180910390f35b6103a2600480360381019061039d9190613f5f565b610e73565b005b3480156103b057600080fd5b506103cb60048036038101906103c69190613f9f565b611229565b005b3480156103d957600080fd5b506103f460048036038101906103ef9190613f5f565b61132b565b005b34801561040257600080fd5b5061041d60048036038101906104189190613f9f565b611490565b005b34801561042b57600080fd5b5061044660048036038101906104419190613f5f565b6114b0565b6040516104539190613f44565b60405180910390f35b34801561046857600080fd5b50610483600480360381019061047e9190613f5f565b6114e1565b6040516104909190613f44565b60405180910390f35b3480156104a557600080fd5b506104c060048036038101906104bb9190613e7c565b611506565b6040516104d79b9a99989796959493929190613ff2565b60405180910390f35b3480156104ec57600080fd5b5061050760048036038101906105029190613e7c565b6118b0565b6040516105149190613eb8565b60405180910390f35b34801561052957600080fd5b50610544600480360381019061053f9190613f5f565b6118c2565b005b34801561055257600080fd5b5061056d60048036038101906105689190613c72565b611abf565b60405161057a9190613f44565b60405180910390f35b34801561058f57600080fd5b50610598611b79565b005b3480156105a657600080fd5b506105c160048036038101906105bc9190613c72565b611b8d565b6040516105ce9190613f13565b60405180910390f35b3480156105e357600080fd5b506105fe60048036038101906105f99190613e7c565b611c24565b60405161060b9190614232565b60405180910390f35b34801561062057600080fd5b5061063b60048036038101906106369190613ed3565b61203c565b6040516106489190613f44565b60405180910390f35b34801561065d57600080fd5b5061066661206d565b6040516106739190613eb8565b60405180910390f35b34801561068857600080fd5b50610691612097565b60405161069e9190613f44565b60405180910390f35b3480156106b357600080fd5b506106bc61209d565b6040516106c99190613e2e565b60405180910390f35b6106ec60048036038101906106e79190613f5f565b61212f565b005b3480156106fa57600080fd5b5061071560048036038101906107109190614254565b6124e1565b6040516107229190613bf9565b60405180910390f35b34801561073757600080fd5b50610752600480360381019061074d9190613f5f565b612510565b60405161075f9190613bf9565b60405180910390f35b34801561077457600080fd5b5061078f600480360381019061078a91906142c0565b61253f565b005b34801561079d57600080fd5b506107b860048036038101906107b39190614435565b612555565b005b3480156107c657600080fd5b506107e160048036038101906107dc9190613f5f565b612673565b6040516107ee9190613eb8565b60405180910390f35b34801561080357600080fd5b5061081e60048036038101906108199190614491565b6126b5565b005b34801561082c57600080fd5b5061084760048036038101906108429190614660565b6128c7565b005b34801561085557600080fd5b50610870600480360381019061086b9190613f5f565b6128ec565b60405161087d9190613bf9565b60405180910390f35b34801561089257600080fd5b506108ad60048036038101906108a89190613e7c565b61291b565b6040516108ba9190613e2e565b60405180910390f35b3480156108cf57600080fd5b506108ea60048036038101906108e591906146e3565b612984565b6040516108f79190613bf9565b60405180910390f35b34801561090c57600080fd5b5061092760048036038101906109229190613c72565b612a18565b005b60007f80ac58cd000000000000000000000000000000000000000000000000000000007bffffffffffffffffffffffffffffffffffffffffffffffffffffffff1916827bffffffffffffffffffffffffffffffffffffffffffffffffffffffff191614806109f457507f5b5e139f000000000000000000000000000000000000000000000000000000007bffffffffffffffffffffffffffffffffffffffffffffffffffffffff1916827bffffffffffffffffffffffffffffffffffffffffffffffffffffffff1916145b80610a045750610a0382612a9e565b5b9050919050565b606080600060085467ffffffffffffffff811115610a2c57610a2b61430a565b5b604051908082528060200260200182016040528015610a5a5781602001602082028036833780820191505090505b509050600060085467ffffffffffffffff811115610a7b57610a7a61430a565b5b604051908082528060200260200182016040528015610aa95781602001602082028036833780820191505090505b509050600080600190505b6007548111610c005760005b600c600083815260200190815260200160002080549050811015610bec576000600c60008481526020019081526020016000208281548110610b0557610b04614723565b5b906000526020600020015490508873ffffffffffffffffffffffffffffffffffffffff16600a6000858152602001908152602001600020600083815260200190815260200160002060009054906101000a900473ffffffffffffffffffffffffffffffffffffffff1673ffffffffffffffffffffffffffffffffffffffff1603610bd85782868581518110610b9d57610b9c614723565b5b60200260200101818152505080858581518110610bbd57610bbc614723565b5b6020026020010181815250508380610bd490614781565b9450505b508080610be490614781565b915050610ac0565b508080610bf890614781565b915050610ab4565b5060008167ffffffffffffffff811115610c1d57610c1c61430a565b5b604051908082528060200260200182016040528015610c4b5781602001602082028036833780820191505090505b50905060008267ffffffffffffffff811115610c6a57610c6961430a565b5b604051908082528060200260200182016040528015610c985781602001602082028036833780820191505090505b50905060005b83811015610d2d57858181518110610cb957610cb8614723565b5b6020026020010151838281518110610cd457610cd3614723565b5b602002602001018181525050848181518110610cf357610cf2614723565b5b6020026020010151828281518110610d0e57610d0d614723565b5b6020026020010181815250508080610d2590614781565b915050610c9e565b508181965096505050505050915091565b606060008054610d4d906147f8565b80601f0160208091040260200160405190810160405280929190818152602001828054610d79906147f8565b8015610dc65780601f10610d9b57610100808354040283529160200191610dc6565b820191906000526020600020905b815481529060010190602001808311610da957829003601f168201915b5050505050905090565b6000610ddb82612b08565b50610de582612b90565b9050919050565b610dfe8282610df9612bcd565b612bd5565b5050565b6060600c6000838152602001908152602001600020805480602002602001604051908101604052809291908181526020018280548015610e6157602002820191906000526020600020905b815481526020019060010190808311610e4d575b50505050509050919050565b60085481565b60008214158015610e8657506007548211155b610ec5576040517f08c379a0000000000000000000000000000000000000000000000000000000008152600401610ebc90614875565b60405180910390fd5b6009600083815260200190815260200160002060020154341015610f1e576040517f08c379a0000000000000000000000000000000000000000000000000000000008152600401610f15906148e1565b60405180910390fd5b600073ffffffffffffffffffffffffffffffffffffffff16600a6000848152602001908152602001600020600083815260200190815260200160002060009054906101000a900473ffffffffffffffffffffffffffffffffffffffff1673ffffffffffffffffffffffffffffffffffffffff1614610fd1576040517f08c379a0000000000000000000000000000000000000000000000000000000008152600401610fc89061494d565b60405180910390fd5b600960008381526020019081526020016000206004015481111561102a576040517f08c379a0000000000000000000000000000000000000000000000000000000008152600401611021906149b9565b60405180910390fd5b6008600081548092919061103d90614781565b9190505550600960008381526020019081526020016000206003016000815480929190611069906149d9565b91905055506001600b600084815260200190815260200160002060003373ffffffffffffffffffffffffffffffffffffffff1673ffffffffffffffffffffffffffffffffffffffff16815260200190815260200160002060006101000a81548160ff02191690831515021790555033600a6000848152602001908152602001600020600083815260200190815260200160002060006101000a81548173ffffffffffffffffffffffffffffffffffffffff021916908373ffffffffffffffffffffffffffffffffffffffff160217905550600c60008381526020019081526020016000208190806001815401808255809150506001900390600052602060002001600090919091909150556000600e6000848152602001908152602001600020600083815260200190815260200160002060006101000a81548160ff0219169083151502179055506000600d6000848152602001908152602001600020600083815260200190815260200160002060006101000a81548160ff0219169083151502179055506111fa33600854612be7565b600854601060008481526020019081526020016000206000838152602001908152602001600020819055505050565b600073ffffffffffffffffffffffffffffffffffffffff168273ffffffffffffffffffffffffffffffffffffffff160361129b5760006040517f64a0ae920000000000000000000000000000000000000000000000000000000081526004016112929190613eb8565b60405180910390fd5b60006112af83836112aa612bcd565b612c05565b90508373ffffffffffffffffffffffffffffffffffffffff168173ffffffffffffffffffffffffffffffffffffffff1614611325578382826040517f64283d7b00000000000000000000000000000000000000000000000000000000815260040161131c93929190614a02565b60405180910390fd5b50505050565b3373ffffffffffffffffffffffffffffffffffffffff16600a6000848152602001908152602001600020600083815260200190815260200160002060009054906101000a900473ffffffffffffffffffffffffffffffffffffffff1673ffffffffffffffffffffffffffffffffffffffff16146113dd576040517f08c379a00000000000000000000000000000000000000000000000000000000081526004016113d490614a85565b60405180910390fd5b600d6000838152602001908152602001600020600082815260200190815260200160002060009054906101000a900460ff161561144f576040517f08c379a000000000000000000000000000000000000000000000000000000000815260040161144690614af1565b60405180910390fd5b6001600e6000848152602001908152602001600020600083815260200190815260200160002060006101000a81548160ff0219169083151502179055505050565b6114ab838383604051806020016040528060008152506128c7565b505050565b600c60205281600052604060002081815481106114cc57600080fd5b90600052602060002001600091509150505481565b6010602052816000526040600020602052806000526040600020600091509150505481565b600960205280600052604060002060009150905080600001549080600101805461152f906147f8565b80601f016020809104026020016040519081016040528092919081815260200182805461155b906147f8565b80156115a85780601f1061157d576101008083540402835291602001916115a8565b820191906000526020600020905b81548152906001019060200180831161158b57829003601f168201915b5050505050908060020154908060030154908060040154908060050180546115cf906147f8565b80601f01602080910402602001604051908101604052809291908181526020018280546115fb906147f8565b80156116485780601f1061161d57610100808354040283529160200191611648565b820191906000526020600020905b81548152906001019060200180831161162b57829003601f168201915b50505050509080600601805461165d906147f8565b80601f0160208091040260200160405190810160405280929190818152602001828054611689906147f8565b80156116d65780601f106116ab576101008083540402835291602001916116d6565b820191906000526020600020905b8154815290600101906020018083116116b957829003601f168201915b5050505050908060070180546116eb906147f8565b80601f0160208091040260200160405190810160405280929190818152602001828054611717906147f8565b80156117645780601f1061173957610100808354040283529160200191611764565b820191906000526020600020905b81548152906001019060200180831161174757829003601f168201915b505050505090806008018054611779906147f8565b80601f01602080910402602001604051908101604052809291908181526020018280546117a5906147f8565b80156117f25780601f106117c7576101008083540402835291602001916117f2565b820191906000526020600020905b8154815290600101906020018083116117d557829003601f168201915b505050505090806009018054611807906147f8565b80601f0160208091040260200160405190810160405280929190818152602001828054611833906147f8565b80156118805780601f1061185557610100808354040283529160200191611880565b820191906000526020600020905b81548152906001019060200180831161186357829003601f168201915b50505050509080600a0160009054906101000a900473ffffffffffffffffffffffffffffffffffffffff1690508b565b60006118bb82612b08565b9050919050565b6118ca612e1f565b600082141580156118dd57506007548211155b61191c576040517f08c379a000000000000000000000000000000000000000000000000000000000815260040161191390614b5d565b60405180910390fd5b600073ffffffffffffffffffffffffffffffffffffffff16600a6000848152602001908152602001600020600083815260200190815260200160002060009054906101000a900473ffffffffffffffffffffffffffffffffffffffff1673ffffffffffffffffffffffffffffffffffffffff16036119cf576040517f08c379a00000000000000000000000000000000000000000000000000000000081526004016119c690614bc9565b60405180910390fd5b600d6000838152602001908152602001600020600082815260200190815260200160002060009054906101000a900460ff1615611a41576040517f08c379a0000000000000000000000000000000000000000000000000000000008152600401611a3890614af1565b60405180910390fd5b6001600d6000848152602001908152602001600020600083815260200190815260200160002060006101000a81548160ff0219169083151502179055506000600e6000848152602001908152602001600020600083815260200190815260200160002060006101000a81548160ff0219169083151502179055505050565b60008073ffffffffffffffffffffffffffffffffffffffff168273ffffffffffffffffffffffffffffffffffffffff1603611b325760006040517f89c62b64000000000000000000000000000000000000000000000000000000008152600401611b299190613eb8565b60405180910390fd5b600360008373ffffffffffffffffffffffffffffffffffffffff1673ffffffffffffffffffffffffffffffffffffffff168152602001908152602001600020549050919050565b611b81612e1f565b611b8b6000612ea6565b565b6060600f60008373ffffffffffffffffffffffffffffffffffffffff1673ffffffffffffffffffffffffffffffffffffffff168152602001908152602001600020805480602002602001604051908101604052809291908181526020018280548015611c1857602002820191906000526020600020905b815481526020019060010190808311611c04575b50505050509050919050565b611c2c613ad5565b600960008381526020019081526020016000206040518061016001604052908160008201548152602001600182018054611c65906147f8565b80601f0160208091040260200160405190810160405280929190818152602001828054611c91906147f8565b8015611cde5780601f10611cb357610100808354040283529160200191611cde565b820191906000526020600020905b815481529060010190602001808311611cc157829003601f168201915b50505050508152602001600282015481526020016003820154815260200160048201548152602001600582018054611d15906147f8565b80601f0160208091040260200160405190810160405280929190818152602001828054611d41906147f8565b8015611d8e5780601f10611d6357610100808354040283529160200191611d8e565b820191906000526020600020905b815481529060010190602001808311611d7157829003601f168201915b50505050508152602001600682018054611da7906147f8565b80601f0160208091040260200160405190810160405280929190818152602001828054611dd3906147f8565b8015611e205780601f10611df557610100808354040283529160200191611e20565b820191906000526020600020905b815481529060010190602001808311611e0357829003601f168201915b50505050508152602001600782018054611e39906147f8565b80601f0160208091040260200160405190810160405280929190818152602001828054611e65906147f8565b8015611eb25780601f10611e8757610100808354040283529160200191611eb2565b820191906000526020600020905b815481529060010190602001808311611e9557829003601f168201915b50505050508152602001600882018054611ecb906147f8565b80601f0160208091040260200160405190810160405280929190818152602001828054611ef7906147f8565b8015611f445780601f10611f1957610100808354040283529160200191611f44565b820191906000526020600020905b815481529060010190602001808311611f2757829003601f168201915b50505050508152602001600982018054611f5d906147f8565b80601f0160208091040260200160405190810160405280929190818152602001828054611f89906147f8565b8015611fd65780601f10611fab57610100808354040283529160200191611fd6565b820191906000526020600020905b815481529060010190602001808311611fb957829003601f168201915b50505050508152602001600a820160009054906101000a900473ffffffffffffffffffffffffffffffffffffffff1673ffffffffffffffffffffffffffffffffffffffff1673ffffffffffffffffffffffffffffffffffffffff16815250509050919050565b600f602052816000526040600020818154811061205857600080fd5b90600052602060002001600091509150505481565b6000600660009054906101000a900473ffffffffffffffffffffffffffffffffffffffff16905090565b60075481565b6060600180546120ac906147f8565b80601f01602080910402602001604051908101604052809291908181526020018280546120d8906147f8565b80156121255780601f106120fa57610100808354040283529160200191612125565b820191906000526020600020905b81548152906001019060200180831161210857829003601f168201915b5050505050905090565b600e6000838152602001908152602001600020600082815260200190815260200160002060009054906101000a900460ff166121a0576040517f08c379a000000000000000000000000000000000000000000000000000000000815260040161219790614c35565b60405180910390fd5b600d6000838152602001908152602001600020600082815260200190815260200160002060009054906101000a900460ff1615612212576040517f08c379a000000000000000000000000000000000000000000000000000000000815260040161220990614af1565b60405180910390fd5b60006010600084815260200190815260200160002060008381526020019081526020016000205490506000612246826118b0565b9050600073ffffffffffffffffffffffffffffffffffffffff168173ffffffffffffffffffffffffffffffffffffffff16036122b7576040517f08c379a00000000000000000000000000000000000000000000000000000000081526004016122ae90614ca1565b60405180910390fd5b3373ffffffffffffffffffffffffffffffffffffffff168173ffffffffffffffffffffffffffffffffffffffff1603612325576040517f08c379a000000000000000000000000000000000000000000000000000000000815260040161231c90614d0d565b60405180910390fd5b600060096000868152602001908152602001600020600201549050803414612382576040517f08c379a000000000000000000000000000000000000000000000000000000000815260040161237990614d79565b60405180910390fd5b60008273ffffffffffffffffffffffffffffffffffffffff16826040516123a890614dca565b60006040518083038185875af1925050503d80600081146123e5576040519150601f19603f3d011682016040523d82523d6000602084013e6123ea565b606091505b505090508061242e576040517f08c379a000000000000000000000000000000000000000000000000000000000815260040161242590614e2b565b60405180910390fd5b612439833386612f6c565b33600a6000888152602001908152602001600020600087815260200190815260200160002060006101000a81548173ffffffffffffffffffffffffffffffffffffffff021916908373ffffffffffffffffffffffffffffffffffffffff1602179055506000600e6000888152602001908152602001600020600087815260200190815260200160002060006101000a81548160ff021916908315150217905550505050505050565b600b6020528160005260406000206020528060005260406000206000915091509054906101000a900460ff1681565b600d6020528160005260406000206020528060005260406000206000915091509054906101000a900460ff1681565b61255161254a612bcd565b83836130d9565b5050565b6000821415801561256857506007548211155b6125a7576040517f08c379a000000000000000000000000000000000000000000000000000000000815260040161259e90614875565b60405180910390fd5b3373ffffffffffffffffffffffffffffffffffffffff1660096000848152602001908152602001600020600a0160009054906101000a900473ffffffffffffffffffffffffffffffffffffffff1673ffffffffffffffffffffffffffffffffffffffff161461264b576040517f08c379a000000000000000000000000000000000000000000000000000000000815260040161264290614ebd565b60405180910390fd5b8060096000848152602001908152602001600020600901908161266e9190615089565b505050565b600a6020528160005260406000206020528060005260406000206000915091509054906101000a900473ffffffffffffffffffffffffffffffffffffffff1681565b6126bd612e1f565b600760008154809291906126d090614781565b919050555060405180610160016040528060075481526020018881526020018781526020018681526020018681526020018581526020018481526020018381526020018281526020016040518060200160405280600081525081526020013373ffffffffffffffffffffffffffffffffffffffff1681525060096000600754815260200190815260200160002060008201518160000155602082015181600101908161277c9190615089565b5060408201518160020155606082015181600301556080820151816004015560a08201518160050190816127b09190615089565b5060c08201518160060190816127c69190615089565b5060e08201518160070190816127dc9190615089565b506101008201518160080190816127f39190615089565b5061012082015181600901908161280a9190615089565b5061014082015181600a0160006101000a81548173ffffffffffffffffffffffffffffffffffffffff021916908373ffffffffffffffffffffffffffffffffffffffff160217905550905050600f60003373ffffffffffffffffffffffffffffffffffffffff1673ffffffffffffffffffffffffffffffffffffffff168152602001908152602001600020600754908060018154018082558091505060019003906000526020600020016000909190919091505550505050505050565b6128d2848484611229565b6128e66128dd612bcd565b85858585613248565b50505050565b600e6020528160005260406000206020528060005260406000206000915091509054906101000a900460ff1681565b606061292682612b08565b5060006129316133f9565b90506000815111612951576040518060200160405280600081525061297c565b8061295b84613410565b60405160200161296c929190615197565b6040516020818303038152906040525b915050919050565b6000600560008473ffffffffffffffffffffffffffffffffffffffff1673ffffffffffffffffffffffffffffffffffffffff16815260200190815260200160002060008373ffffffffffffffffffffffffffffffffffffffff1673ffffffffffffffffffffffffffffffffffffffff16815260200190815260200160002060009054906101000a900460ff16905092915050565b612a20612e1f565b600073ffffffffffffffffffffffffffffffffffffffff168173ffffffffffffffffffffffffffffffffffffffff1603612a925760006040517f1e4fbdf7000000000000000000000000000000000000000000000000000000008152600401612a899190613eb8565b60405180910390fd5b612a9b81612ea6565b50565b60007f01ffc9a7000000000000000000000000000000000000000000000000000000007bffffffffffffffffffffffffffffffffffffffffffffffffffffffff1916827bffffffffffffffffffffffffffffffffffffffffffffffffffffffff1916149050919050565b600080612b14836134de565b9050600073ffffffffffffffffffffffffffffffffffffffff168173ffffffffffffffffffffffffffffffffffffffff1603612b8757826040517f7e273289000000000000000000000000000000000000000000000000000000008152600401612b7e9190613f44565b60405180910390fd5b80915050919050565b60006004600083815260200190815260200160002060009054906101000a900473ffffffffffffffffffffffffffffffffffffffff169050919050565b600033905090565b612be2838383600161351b565b505050565b612c018282604051806020016040528060008152506136e0565b5050565b600080612c11846134de565b9050600073ffffffffffffffffffffffffffffffffffffffff168373ffffffffffffffffffffffffffffffffffffffff1614612c5357612c52818486613704565b5b600073ffffffffffffffffffffffffffffffffffffffff168173ffffffffffffffffffffffffffffffffffffffff1614612ce457612c9560008560008061351b565b6001600360008373ffffffffffffffffffffffffffffffffffffffff1673ffffffffffffffffffffffffffffffffffffffff168152602001908152602001600020600082825403925050819055505b600073ffffffffffffffffffffffffffffffffffffffff168573ffffffffffffffffffffffffffffffffffffffff1614612d67576001600360008773ffffffffffffffffffffffffffffffffffffffff1673ffffffffffffffffffffffffffffffffffffffff168152602001908152602001600020600082825401925050819055505b846002600086815260200190815260200160002060006101000a81548173ffffffffffffffffffffffffffffffffffffffff021916908373ffffffffffffffffffffffffffffffffffffffff160217905550838573ffffffffffffffffffffffffffffffffffffffff168273ffffffffffffffffffffffffffffffffffffffff167fddf252ad1be2c89b69c2b068fc378daa952ba7f163c4a11628f55a4df523b3ef60405160405180910390a4809150509392505050565b612e27612bcd565b73ffffffffffffffffffffffffffffffffffffffff16612e4561206d565b73ffffffffffffffffffffffffffffffffffffffff1614612ea457612e68612bcd565b6040517f118cdaa7000000000000000000000000000000000000000000000000000000008152600401612e9b9190613eb8565b60405180910390fd5b565b6000600660009054906101000a900473ffffffffffffffffffffffffffffffffffffffff16905081600660006101000a81548173ffffffffffffffffffffffffffffffffffffffff021916908373ffffffffffffffffffffffffffffffffffffffff1602179055508173ffffffffffffffffffffffffffffffffffffffff168173ffffffffffffffffffffffffffffffffffffffff167f8be0079c531659141344cd1fd0a4f28419497f9722a3daafe3b4186f6b6457e060405160405180910390a35050565b600073ffffffffffffffffffffffffffffffffffffffff168273ffffffffffffffffffffffffffffffffffffffff1603612fde5760006040517f64a0ae92000000000000000000000000000000000000000000000000000000008152600401612fd59190613eb8565b60405180910390fd5b6000612fec83836000612c05565b9050600073ffffffffffffffffffffffffffffffffffffffff168173ffffffffffffffffffffffffffffffffffffffff160361305f57816040517f7e2732890000000000000000000000000000000000000000000000000000000081526004016130569190613f44565b60405180910390fd5b8373ffffffffffffffffffffffffffffffffffffffff168173ffffffffffffffffffffffffffffffffffffffff16146130d3578382826040517f64283d7b0000000000000000000000000000000000000000000000000000000081526004016130ca93929190614a02565b60405180910390fd5b50505050565b600073ffffffffffffffffffffffffffffffffffffffff168273ffffffffffffffffffffffffffffffffffffffff160361314a57816040517f5b08ba180000000000000000000000000000000000000000000000000000000081526004016131419190613eb8565b60405180910390fd5b80600560008573ffffffffffffffffffffffffffffffffffffffff1673ffffffffffffffffffffffffffffffffffffffff16815260200190815260200160002060008473ffffffffffffffffffffffffffffffffffffffff1673ffffffffffffffffffffffffffffffffffffffff16815260200190815260200160002060006101000a81548160ff0219169083151502179055508173ffffffffffffffffffffffffffffffffffffffff168373ffffffffffffffffffffffffffffffffffffffff167f17307eab39ab6107e8899845ad3d59bd9653f200f220920489ca2b5937696c318360405161323b9190613bf9565b60405180910390a3505050565b60008373ffffffffffffffffffffffffffffffffffffffff163b11156133f2578273ffffffffffffffffffffffffffffffffffffffff1663150b7a02868685856040518563ffffffff1660e01b81526004016132a79493929190615210565b6020604051808303816000875af19250505080156132e357506040513d601f19601f820116820180604052508101906132e09190615271565b60015b613367573d8060008114613313576040519150601f19603f3d011682016040523d82523d6000602084013e613318565b606091505b50600081510361335f57836040517f64a0ae920000000000000000000000000000000000000000000000000000000081526004016133569190613eb8565b60405180910390fd5b805181602001fd5b63150b7a0260e01b7bffffffffffffffffffffffffffffffffffffffffffffffffffffffff1916817bffffffffffffffffffffffffffffffffffffffffffffffffffffffff1916146133f057836040517f64a0ae920000000000000000000000000000000000000000000000000000000081526004016133e79190613eb8565b60405180910390fd5b505b5050505050565b606060405180602001604052806000815250905090565b60606000600161341f846137c8565b01905060008167ffffffffffffffff81111561343e5761343d61430a565b5b6040519080825280601f01601f1916602001820160405280156134705781602001600182028036833780820191505090505b509050600082602001820190505b6001156134d3578080600190039150507f3031323334353637383961626364656600000000000000000000000000000000600a86061a8153600a85816134c7576134c661529e565b5b0494506000850361347e575b819350505050919050565b60006002600083815260200190815260200160002060009054906101000a900473ffffffffffffffffffffffffffffffffffffffff169050919050565b80806135545750600073ffffffffffffffffffffffffffffffffffffffff168273ffffffffffffffffffffffffffffffffffffffff1614155b1561368857600061356484612b08565b9050600073ffffffffffffffffffffffffffffffffffffffff168373ffffffffffffffffffffffffffffffffffffffff16141580156135cf57508273ffffffffffffffffffffffffffffffffffffffff168173ffffffffffffffffffffffffffffffffffffffff1614155b80156135e257506135e08184612984565b155b1561362457826040517fa9fbf51f00000000000000000000000000000000000000000000000000000000815260040161361b9190613eb8565b60405180910390fd5b811561368657838573ffffffffffffffffffffffffffffffffffffffff168273ffffffffffffffffffffffffffffffffffffffff167f8c5be1e5ebec7d5bd14f71427d1e84f3dd0314c0f7b2291e5b200ac8c7c3b92560405160405180910390a45b505b836004600085815260200190815260200160002060006101000a81548173ffffffffffffffffffffffffffffffffffffffff021916908373ffffffffffffffffffffffffffffffffffffffff16021790555050505050565b6136ea838361391b565b6136ff6136f5612bcd565b6000858585613248565b505050565b61370f838383613a14565b6137c357600073ffffffffffffffffffffffffffffffffffffffff168373ffffffffffffffffffffffffffffffffffffffff160361378457806040517f7e27328900000000000000000000000000000000000000000000000000000000815260040161377b9190613f44565b60405180910390fd5b81816040517f177e802f0000000000000000000000000000000000000000000000000000000081526004016137ba9291906152cd565b60405180910390fd5b505050565b600080600090507a184f03e93ff9f4daa797ed6e38ed64bf6a1f0100000000000000008310613826577a184f03e93ff9f4daa797ed6e38ed64bf6a1f010000000000000000838161381c5761381b61529e565b5b0492506040810190505b6d04ee2d6d415b85acef81000000008310613863576d04ee2d6d415b85acef810000000083816138595761385861529e565b5b0492506020810190505b662386f26fc10000831061389257662386f26fc1000083816138885761388761529e565b5b0492506010810190505b6305f5e10083106138bb576305f5e10083816138b1576138b061529e565b5b0492506008810190505b61271083106138e05761271083816138d6576138d561529e565b5b0492506004810190505b6064831061390357606483816138f9576138f861529e565b5b0492506002810190505b600a8310613912576001810190505b80915050919050565b600073ffffffffffffffffffffffffffffffffffffffff168273ffffffffffffffffffffffffffffffffffffffff160361398d5760006040517f64a0ae920000000000000000000000000000000000000000000000000000000081526004016139849190613eb8565b60405180910390fd5b600061399b83836000612c05565b9050600073ffffffffffffffffffffffffffffffffffffffff168173ffffffffffffffffffffffffffffffffffffffff1614613a0f5760006040517f73c6ac6e000000000000000000000000000000000000000000000000000000008152600401613a069190613eb8565b60405180910390fd5b505050565b60008073ffffffffffffffffffffffffffffffffffffffff168373ffffffffffffffffffffffffffffffffffffffff1614158015613acc57508273ffffffffffffffffffffffffffffffffffffffff168473ffffffffffffffffffffffffffffffffffffffff161480613a8d5750613a8c8484612984565b5b80613acb57508273ffffffffffffffffffffffffffffffffffffffff16613ab383612b90565b73ffffffffffffffffffffffffffffffffffffffff16145b5b90509392505050565b60405180610160016040528060008152602001606081526020016000815260200160008152602001600081526020016060815260200160608152602001606081526020016060815260200160608152602001600073ffffffffffffffffffffffffffffffffffffffff1681525090565b6000604051905090565b600080fd5b600080fd5b60007fffffffff0000000000000000000000000000000000000000000000000000000082169050919050565b613b8e81613b59565b8114613b9957600080fd5b50565b600081359050613bab81613b85565b92915050565b600060208284031215613bc757613bc6613b4f565b5b6000613bd584828501613b9c565b91505092915050565b60008115159050919050565b613bf381613bde565b82525050565b6000602082019050613c0e6000830184613bea565b92915050565b600073ffffffffffffffffffffffffffffffffffffffff82169050919050565b6000613c3f82613c14565b9050919050565b613c4f81613c34565b8114613c5a57600080fd5b50565b600081359050613c6c81613c46565b92915050565b600060208284031215613c8857613c87613b4f565b5b6000613c9684828501613c5d565b91505092915050565b600081519050919050565b600082825260208201905092915050565b6000819050602082019050919050565b6000819050919050565b613cde81613ccb565b82525050565b6000613cf08383613cd5565b60208301905092915050565b6000602082019050919050565b6000613d1482613c9f565b613d1e8185613caa565b9350613d2983613cbb565b8060005b83811015613d5a578151613d418882613ce4565b9750613d4c83613cfc565b925050600181019050613d2d565b5085935050505092915050565b60006040820190508181036000830152613d818185613d09565b90508181036020830152613d958184613d09565b90509392505050565b600081519050919050565b600082825260208201905092915050565b60005b83811015613dd8578082015181840152602081019050613dbd565b60008484015250505050565b6000601f19601f8301169050919050565b6000613e0082613d9e565b613e0a8185613da9565b9350613e1a818560208601613dba565b613e2381613de4565b840191505092915050565b60006020820190508181036000830152613e488184613df5565b905092915050565b613e5981613ccb565b8114613e6457600080fd5b50565b600081359050613e7681613e50565b92915050565b600060208284031215613e9257613e91613b4f565b5b6000613ea084828501613e67565b91505092915050565b613eb281613c34565b82525050565b6000602082019050613ecd6000830184613ea9565b92915050565b60008060408385031215613eea57613ee9613b4f565b5b6000613ef885828601613c5d565b9250506020613f0985828601613e67565b9150509250929050565b60006020820190508181036000830152613f2d8184613d09565b905092915050565b613f3e81613ccb565b82525050565b6000602082019050613f596000830184613f35565b92915050565b60008060408385031215613f7657613f75613b4f565b5b6000613f8485828601613e67565b9250506020613f9585828601613e67565b9150509250929050565b600080600060608486031215613fb857613fb7613b4f565b5b6000613fc686828701613c5d565b9350506020613fd786828701613c5d565b9250506040613fe886828701613e67565b9150509250925092565b600061016082019050614008600083018e613f35565b818103602083015261401a818d613df5565b9050614029604083018c613f35565b614036606083018b613f35565b614043608083018a613f35565b81810360a08301526140558189613df5565b905081810360c08301526140698188613df5565b905081810360e083015261407d8187613df5565b90508181036101008301526140928186613df5565b90508181036101208301526140a78185613df5565b90506140b7610140830184613ea9565b9c9b505050505050505050505050565b600082825260208201905092915050565b60006140e382613d9e565b6140ed81856140c7565b93506140fd818560208601613dba565b61410681613de4565b840191505092915050565b61411a81613c34565b82525050565b6000610160830160008301516141396000860182613cd5565b506020830151848203602086015261415182826140d8565b91505060408301516141666040860182613cd5565b5060608301516141796060860182613cd5565b50608083015161418c6080860182613cd5565b5060a083015184820360a08601526141a482826140d8565b91505060c083015184820360c08601526141be82826140d8565b91505060e083015184820360e08601526141d882826140d8565b9150506101008301518482036101008601526141f482826140d8565b91505061012083015184820361012086015261421082826140d8565b915050610140830151614227610140860182614111565b508091505092915050565b6000602082019050818103600083015261424c8184614120565b905092915050565b6000806040838503121561426b5761426a613b4f565b5b600061427985828601613e67565b925050602061428a85828601613c5d565b9150509250929050565b61429d81613bde565b81146142a857600080fd5b50565b6000813590506142ba81614294565b92915050565b600080604083850312156142d7576142d6613b4f565b5b60006142e585828601613c5d565b92505060206142f6858286016142ab565b9150509250929050565b600080fd5b600080fd5b7f4e487b7100000000000000000000000000000000000000000000000000000000600052604160045260246000fd5b61434282613de4565b810181811067ffffffffffffffff821117156143615761436061430a565b5b80604052505050565b6000614374613b45565b90506143808282614339565b919050565b600067ffffffffffffffff8211156143a05761439f61430a565b5b6143a982613de4565b9050602081019050919050565b82818337600083830152505050565b60006143d86143d384614385565b61436a565b9050828152602081018484840111156143f4576143f3614305565b5b6143ff8482856143b6565b509392505050565b600082601f83011261441c5761441b614300565b5b813561442c8482602086016143c5565b91505092915050565b6000806040838503121561444c5761444b613b4f565b5b600061445a85828601613e67565b925050602083013567ffffffffffffffff81111561447b5761447a613b54565b5b61448785828601614407565b9150509250929050565b600080600080600080600060e0888a0312156144b0576144af613b4f565b5b600088013567ffffffffffffffff8111156144ce576144cd613b54565b5b6144da8a828b01614407565b97505060206144eb8a828b01613e67565b96505060406144fc8a828b01613e67565b955050606088013567ffffffffffffffff81111561451d5761451c613b54565b5b6145298a828b01614407565b945050608088013567ffffffffffffffff81111561454a57614549613b54565b5b6145568a828b01614407565b93505060a088013567ffffffffffffffff81111561457757614576613b54565b5b6145838a828b01614407565b92505060c088013567ffffffffffffffff8111156145a4576145a3613b54565b5b6145b08a828b01614407565b91505092959891949750929550565b600067ffffffffffffffff8211156145da576145d961430a565b5b6145e382613de4565b9050602081019050919050565b60006146036145fe846145bf565b61436a565b90508281526020810184848401111561461f5761461e614305565b5b61462a8482856143b6565b509392505050565b600082601f83011261464757614646614300565b5b81356146578482602086016145f0565b91505092915050565b6000806000806080858703121561467a57614679613b4f565b5b600061468887828801613c5d565b945050602061469987828801613c5d565b93505060406146aa87828801613e67565b925050606085013567ffffffffffffffff8111156146cb576146ca613b54565b5b6146d787828801614632565b91505092959194509250565b600080604083850312156146fa576146f9613b4f565b5b600061470885828601613c5d565b925050602061471985828601613c5d565b9150509250929050565b7f4e487b7100000000000000000000000000000000000000000000000000000000600052603260045260246000fd5b7f4e487b7100000000000000000000000000000000000000000000000000000000600052601160045260246000fd5b600061478c82613ccb565b91507fffffffffffffffffffffffffffffffffffffffffffffffffffffffffffffffff82036147be576147bd614752565b5b600182019050919050565b7f4e487b7100000000000000000000000000000000000000000000000000000000600052602260045260246000fd5b6000600282049050600182168061481057607f821691505b602082108103614823576148226147c9565b5b50919050565b7f496e76616c6964206f63636173696f6e20494400000000000000000000000000600082015250565b600061485f601383613da9565b915061486a82614829565b602082019050919050565b6000602082019050818103600083015261488e81614852565b9050919050565b7f496e73756666696369656e74204554482073656e740000000000000000000000600082015250565b60006148cb601583613da9565b91506148d682614895565b602082019050919050565b600060208201905081810360008301526148fa816148be565b9050919050565b7f5365617420616c72656164792074616b656e0000000000000000000000000000600082015250565b6000614937601283613da9565b915061494282614901565b602082019050919050565b600060208201905081810360008301526149668161492a565b9050919050565b7f496e76616c69642073656174206e756d62657200000000000000000000000000600082015250565b60006149a3601383613da9565b91506149ae8261496d565b602082019050919050565b600060208201905081810360008301526149d281614996565b9050919050565b60006149e482613ccb565b9150600082036149f7576149f6614752565b5b600182039050919050565b6000606082019050614a176000830186613ea9565b614a246020830185613f35565b614a316040830184613ea9565b949350505050565b7f4e6f7420746865206f776e6572206f6620746865207469636b65740000000000600082015250565b6000614a6f601b83613da9565b9150614a7a82614a39565b602082019050919050565b60006020820190508181036000830152614a9e81614a62565b9050919050565b7f5469636b657420616c7265616479207573656400000000000000000000000000600082015250565b6000614adb601383613da9565b9150614ae682614aa5565b602082019050919050565b60006020820190508181036000830152614b0a81614ace565b9050919050565b7f496e76616c6964206576656e7420494400000000000000000000000000000000600082015250565b6000614b47601083613da9565b9150614b5282614b11565b602082019050919050565b60006020820190508181036000830152614b7681614b3a565b9050919050565b7f53656174206e6f74206f63637570696564000000000000000000000000000000600082015250565b6000614bb3601183613da9565b9150614bbe82614b7d565b602082019050919050565b60006020820190508181036000830152614be281614ba6565b9050919050565b7f526573616c65206e6f7420616c6c6f7765640000000000000000000000000000600082015250565b6000614c1f601283613da9565b9150614c2a82614be9565b602082019050919050565b60006020820190508181036000830152614c4e81614c12565b9050919050565b7f496e76616c6964207469636b6574000000000000000000000000000000000000600082015250565b6000614c8b600e83613da9565b9150614c9682614c55565b602082019050919050565b60006020820190508181036000830152614cba81614c7e565b9050919050565b7f43616e6e6f742062757920796f7572206f776e207469636b6574000000000000600082015250565b6000614cf7601a83613da9565b9150614d0282614cc1565b602082019050919050565b60006020820190508181036000830152614d2681614cea565b9050919050565b7f496e636f7272656374207061796d656e7420616d6f756e740000000000000000600082015250565b6000614d63601883613da9565b9150614d6e82614d2d565b602082019050919050565b60006020820190508181036000830152614d9281614d56565b9050919050565b600081905092915050565b50565b6000614db4600083614d99565b9150614dbf82614da4565b600082019050919050565b6000614dd582614da7565b9150819050919050565b7f5061796d656e74207472616e73666572206661696c6564000000000000000000600082015250565b6000614e15601783613da9565b9150614e2082614ddf565b602082019050919050565b60006020820190508181036000830152614e4481614e08565b9050919050565b7f4f6e6c79206576656e742063726561746f722063616e2073657420565220766960008201527f64656f0000000000000000000000000000000000000000000000000000000000602082015250565b6000614ea7602383613da9565b9150614eb282614e4b565b604082019050919050565b60006020820190508181036000830152614ed681614e9a565b9050919050565b60008190508160005260206000209050919050565b60006020601f8301049050919050565b600082821b905092915050565b600060088302614f3f7fffffffffffffffffffffffffffffffffffffffffffffffffffffffffffffffff82614f02565b614f498683614f02565b95508019841693508086168417925050509392505050565b6000819050919050565b6000614f86614f81614f7c84613ccb565b614f61565b613ccb565b9050919050565b6000819050919050565b614fa083614f6b565b614fb4614fac82614f8d565b848454614f0f565b825550505050565b600090565b614fc9614fbc565b614fd4818484614f97565b505050565b5b81811015614ff857614fed600082614fc1565b600181019050614fda565b5050565b601f82111561503d5761500e81614edd565b61501784614ef2565b81016020851015615026578190505b61503a61503285614ef2565b830182614fd9565b50505b505050565b600082821c905092915050565b600061506060001984600802615042565b1980831691505092915050565b6000615079838361504f565b9150826002028217905092915050565b61509282613d9e565b67ffffffffffffffff8111156150ab576150aa61430a565b5b6150b582546147f8565b6150c0828285614ffc565b600060209050601f8311600181146150f357600084156150e1578287015190505b6150eb858261506d565b865550615153565b601f19841661510186614edd565b60005b8281101561512957848901518255600182019150602085019450602081019050615104565b868310156151465784890151615142601f89168261504f565b8355505b6001600288020188555050505b505050505050565b600081905092915050565b600061517182613d9e565b61517b818561515b565b935061518b818560208601613dba565b80840191505092915050565b60006151a38285615166565b91506151af8284615166565b91508190509392505050565b600081519050919050565b600082825260208201905092915050565b60006151e2826151bb565b6151ec81856151c6565b93506151fc818560208601613dba565b61520581613de4565b840191505092915050565b60006080820190506152256000830187613ea9565b6152326020830186613ea9565b61523f6040830185613f35565b818103606083015261525181846151d7565b905095945050505050565b60008151905061526b81613b85565b92915050565b60006020828403121561528757615286613b4f565b5b60006152958482850161525c565b91505092915050565b7f4e487b7100000000000000000000000000000000000000000000000000000000600052601260045260246000fd5b60006040820190506152e26000830185613ea9565b6152ef6020830184613f35565b939250505056fea2646970667358221220969cfb7028f2bc701fb28a9d5d82f52c52d98017a2728d98c0f622dc7d4b3aeb64736f6c63430008140033",
  "linkReferences": {},
  "deployedLinkReferences": {}
}