{
  "_format": "hh-sol-artifact-1",
  "contractName": "PatientMedication",
  "sourceName": "contracts/PatientMedicaition.sol",
  "abi": [
    {
      "anonymous": false,
      "inputs": [
        {
          "indexed": true,
          "internalType": "address",
          "name": "patientAddress",
          "type": "address"
        },
        {
          "indexed": false,
          "internalType": "uint256",
          "name": "recordId",
          "type": "uint256"
        },
        {
          "indexed": false,
          "internalType": "string",
          "name": "medicationName",
          "type": "string"
        }
      ],
      "name": "MedicationRecordAdded",
      "type": "event"
    },
    {
      "inputs": [
        {
          "internalType": "string",
          "name": "_medicationName",
          "type": "string"
        },
        {
          "internalType": "string",
          "name": "_dosage",
          "type": "string"
        },
        {
          "internalType": "string",
          "name": "_instructions",
          "type": "string"
        },
        {
          "internalType": "string",
          "name": "_prescribingDoctor",
          "type": "string"
        },
        {
          "internalType": "string",
          "name": "_receipt",
          "type": "string"
        }
      ],
      "name": "addMedicationRecord",
      "outputs": [],
      "stateMutability": "nonpayable",
      "type": "function"
    },
    {
      "inputs": [],
      "name": "getMyMedicationRecords",
      "outputs": [
        {
          "components": [
            {
              "internalType": "uint256",
              "name": "recordId",
              "type": "uint256"
            },
            {
              "internalType": "string",
              "name": "medicationName",
              "type": "string"
            },
            {
              "internalType": "string",
              "name": "dosage",
              "type": "string"
            },
            {
              "internalType": "string",
              "name": "instructions",
              "type": "string"
            },
            {
              "internalType": "uint256",
              "name": "issueDate",
              "type": "uint256"
            },
            {
              "internalType": "string",
              "name": "prescribingDoctor",
              "type": "string"
            },
            {
              "internalType": "string",
              "name": "receipt",
              "type": "string"
            }
          ],
          "internalType": "struct PatientMedication.MedicationRecord[]",
          "name": "",
          "type": "tuple[]"
        }
      ],
      "stateMutability": "view",
      "type": "function"
    },
    {
      "inputs": [
        {
          "internalType": "address",
          "name": "_patient",
          "type": "address"
        }
      ],
      "name": "getPatientMedicationRecords",
      "outputs": [
        {
          "components": [
            {
              "internalType": "uint256",
              "name": "recordId",
              "type": "uint256"
            },
            {
              "internalType": "string",
              "name": "medicationName",
              "type": "string"
            },
            {
              "internalType": "string",
              "name": "dosage",
              "type": "string"
            },
            {
              "internalType": "string",
              "name": "instructions",
              "type": "string"
            },
            {
              "internalType": "uint256",
              "name": "issueDate",
              "type": "uint256"
            },
            {
              "internalType": "string",
              "name": "prescribingDoctor",
              "type": "string"
            },
            {
              "internalType": "string",
              "name": "receipt",
              "type": "string"
            }
          ],
          "internalType": "struct PatientMedication.MedicationRecord[]",
          "name": "",
          "type": "tuple[]"
        }
      ],
      "stateMutability": "view",
      "type": "function"
    }
  ],
  "bytecode": "0x608060405234801561001057600080fd5b506112b2806100206000396000f3fe608060405234801561001057600080fd5b50600436106100415760003560e01c80635cba966f14610046578063e38682b414610076578063fe4ae9b414610092575b600080fd5b610060600480360381019061005b9190610a04565b6100b0565b60405161006d9190610c54565b60405180910390f35b610090600480360381019061008b9190610dab565b61043b565b005b61009a610609565b6040516100a79190610c54565b60405180910390f35b60606000808373ffffffffffffffffffffffffffffffffffffffff1673ffffffffffffffffffffffffffffffffffffffff168152602001908152602001600020805480602002602001604051908101604052809291908181526020016000905b8282101561043057838290600052602060002090600702016040518060e00160405290816000820154815260200160018201805461014d90610ee1565b80601f016020809104026020016040519081016040528092919081815260200182805461017990610ee1565b80156101c65780601f1061019b576101008083540402835291602001916101c6565b820191906000526020600020905b8154815290600101906020018083116101a957829003601f168201915b505050505081526020016002820180546101df90610ee1565b80601f016020809104026020016040519081016040528092919081815260200182805461020b90610ee1565b80156102585780601f1061022d57610100808354040283529160200191610258565b820191906000526020600020905b81548152906001019060200180831161023b57829003601f168201915b5050505050815260200160038201805461027190610ee1565b80601f016020809104026020016040519081016040528092919081815260200182805461029d90610ee1565b80156102ea5780601f106102bf576101008083540402835291602001916102ea565b820191906000526020600020905b8154815290600101906020018083116102cd57829003601f168201915b505050505081526020016004820154815260200160058201805461030d90610ee1565b80601f016020809104026020016040519081016040528092919081815260200182805461033990610ee1565b80156103865780601f1061035b57610100808354040283529160200191610386565b820191906000526020600020905b81548152906001019060200180831161036957829003601f168201915b5050505050815260200160068201805461039f90610ee1565b80601f01602080910402602001604051908101604052809291908181526020018280546103cb90610ee1565b80156104185780601f106103ed57610100808354040283529160200191610418565b820191906000526020600020905b8154815290600101906020018083116103fb57829003601f168201915b50505050508152505081526020019060010190610110565b505050509050919050565b600060016000803373ffffffffffffffffffffffffffffffffffffffff1673ffffffffffffffffffffffffffffffffffffffff1681526020019081526020016000208054905061048b9190610f41565b905060006040518060e001604052808381526020018881526020018781526020018681526020014281526020018581526020018481525090506000803373ffffffffffffffffffffffffffffffffffffffff1673ffffffffffffffffffffffffffffffffffffffff16815260200190815260200160002081908060018154018082558091505060019003906000526020600020906007020160009091909190915060008201518160000155602082015181600101908161054b9190611121565b5060408201518160020190816105619190611121565b5060608201518160030190816105779190611121565b506080820151816004015560a08201518160050190816105979190611121565b5060c08201518160060190816105ad9190611121565b5050503373ffffffffffffffffffffffffffffffffffffffff167f49c0d09b0985264670299950cd84008de50b13096fac0c8212665a0b958f555183896040516105f892919061124c565b60405180910390a250505050505050565b60606000803373ffffffffffffffffffffffffffffffffffffffff1673ffffffffffffffffffffffffffffffffffffffff168152602001908152602001600020805480602002602001604051908101604052809291908181526020016000905b8282101561098957838290600052602060002090600702016040518060e0016040529081600082015481526020016001820180546106a690610ee1565b80601f01602080910402602001604051908101604052809291908181526020018280546106d290610ee1565b801561071f5780601f106106f45761010080835404028352916020019161071f565b820191906000526020600020905b81548152906001019060200180831161070257829003601f168201915b5050505050815260200160028201805461073890610ee1565b80601f016020809104026020016040519081016040528092919081815260200182805461076490610ee1565b80156107b15780601f10610786576101008083540402835291602001916107b1565b820191906000526020600020905b81548152906001019060200180831161079457829003601f168201915b505050505081526020016003820180546107ca90610ee1565b80601f01602080910402602001604051908101604052809291908181526020018280546107f690610ee1565b80156108435780601f1061081857610100808354040283529160200191610843565b820191906000526020600020905b81548152906001019060200180831161082657829003601f168201915b505050505081526020016004820154815260200160058201805461086690610ee1565b80601f016020809104026020016040519081016040528092919081815260200182805461089290610ee1565b80156108df5780601f106108b4576101008083540402835291602001916108df565b820191906000526020600020905b8154815290600101906020018083116108c257829003601f168201915b505050505081526020016006820180546108f890610ee1565b80601f016020809104026020016040519081016040528092919081815260200182805461092490610ee1565b80156109715780601f1061094657610100808354040283529160200191610971565b820191906000526020600020905b81548152906001019060200180831161095457829003601f168201915b50505050508152505081526020019060010190610669565b50505050905090565b6000604051905090565b600080fd5b600080fd5b600073ffffffffffffffffffffffffffffffffffffffff82169050919050565b60006109d1826109a6565b9050919050565b6109e1816109c6565b81146109ec57600080fd5b50565b6000813590506109fe816109d8565b92915050565b600060208284031215610a1a57610a1961099c565b5b6000610a28848285016109ef565b91505092915050565b600081519050919050565b600082825260208201905092915050565b6000819050602082019050919050565b6000819050919050565b610a7081610a5d565b82525050565b600081519050919050565b600082825260208201905092915050565b60005b83811015610ab0578082015181840152602081019050610a95565b60008484015250505050565b6000601f19601f8301169050919050565b6000610ad882610a76565b610ae28185610a81565b9350610af2818560208601610a92565b610afb81610abc565b840191505092915050565b600060e083016000830151610b1e6000860182610a67565b5060208301518482036020860152610b368282610acd565b91505060408301518482036040860152610b508282610acd565b91505060608301518482036060860152610b6a8282610acd565b9150506080830151610b7f6080860182610a67565b5060a083015184820360a0860152610b978282610acd565b91505060c083015184820360c0860152610bb18282610acd565b9150508091505092915050565b6000610bca8383610b06565b905092915050565b6000602082019050919050565b6000610bea82610a31565b610bf48185610a3c565b935083602082028501610c0685610a4d565b8060005b85811015610c425784840389528151610c238582610bbe565b9450610c2e83610bd2565b925060208a01995050600181019050610c0a565b50829750879550505050505092915050565b60006020820190508181036000830152610c6e8184610bdf565b905092915050565b600080fd5b600080fd5b7f4e487b7100000000000000000000000000000000000000000000000000000000600052604160045260246000fd5b610cb882610abc565b810181811067ffffffffffffffff82111715610cd757610cd6610c80565b5b80604052505050565b6000610cea610992565b9050610cf68282610caf565b919050565b600067ffffffffffffffff821115610d1657610d15610c80565b5b610d1f82610abc565b9050602081019050919050565b82818337600083830152505050565b6000610d4e610d4984610cfb565b610ce0565b905082815260208101848484011115610d6a57610d69610c7b565b5b610d75848285610d2c565b509392505050565b600082601f830112610d9257610d91610c76565b5b8135610da2848260208601610d3b565b91505092915050565b600080600080600060a08688031215610dc757610dc661099c565b5b600086013567ffffffffffffffff811115610de557610de46109a1565b5b610df188828901610d7d565b955050602086013567ffffffffffffffff811115610e1257610e116109a1565b5b610e1e88828901610d7d565b945050604086013567ffffffffffffffff811115610e3f57610e3e6109a1565b5b610e4b88828901610d7d565b935050606086013567ffffffffffffffff811115610e6c57610e6b6109a1565b5b610e7888828901610d7d565b925050608086013567ffffffffffffffff811115610e9957610e986109a1565b5b610ea588828901610d7d565b9150509295509295909350565b7f4e487b7100000000000000000000000000000000000000000000000000000000600052602260045260246000fd5b60006002820490506001821680610ef957607f821691505b602082108103610f0c57610f0b610eb2565b5b50919050565b7f4e487b7100000000000000000000000000000000000000000000000000000000600052601160045260246000fd5b6000610f4c82610a5d565b9150610f5783610a5d565b9250828201905080821115610f6f57610f6e610f12565b5b92915050565b60008190508160005260206000209050919050565b60006020601f8301049050919050565b600082821b905092915050565b600060088302610fd77fffffffffffffffffffffffffffffffffffffffffffffffffffffffffffffffff82610f9a565b610fe18683610f9a565b95508019841693508086168417925050509392505050565b6000819050919050565b600061101e61101961101484610a5d565b610ff9565b610a5d565b9050919050565b6000819050919050565b61103883611003565b61104c61104482611025565b848454610fa7565b825550505050565b600090565b611061611054565b61106c81848461102f565b505050565b5b8181101561109057611085600082611059565b600181019050611072565b5050565b601f8211156110d5576110a681610f75565b6110af84610f8a565b810160208510156110be578190505b6110d26110ca85610f8a565b830182611071565b50505b505050565b600082821c905092915050565b60006110f8600019846008026110da565b1980831691505092915050565b600061111183836110e7565b9150826002028217905092915050565b61112a82610a76565b67ffffffffffffffff81111561114357611142610c80565b5b61114d8254610ee1565b611158828285611094565b600060209050601f83116001811461118b5760008415611179578287015190505b6111838582611105565b8655506111eb565b601f19841661119986610f75565b60005b828110156111c15784890151825560018201915060208501945060208101905061119c565b868310156111de57848901516111da601f8916826110e7565b8355505b6001600288020188555050505b505050505050565b6111fc81610a5d565b82525050565b600082825260208201905092915050565b600061121e82610a76565b6112288185611202565b9350611238818560208601610a92565b61124181610abc565b840191505092915050565b600060408201905061126160008301856111f3565b81810360208301526112738184611213565b9050939250505056fea2646970667358221220d18a98233acfc4939de623506c2e3a38318f162008b34e6e89f67bc43f3ed9c564736f6c63430008140033",
  "linkReferences": {},
  "deployedLinkReferences": {}
}